:100202004D6F204469723A20476F746F004D6F2022
:100212005370643A2046617374205E5F5E004D6FD6
:10022200205370643A204E6F726C205E5F5E004D08
:100232006F205370643A20536C6F77205E5F5E00CC
:0D0242004D6F204469723A204261636B00E9
:04038600021400015C
:1000260012024F7F647E001202FA12035B20004721
:10003600C2B7AF1512028CE51564014514700B7535
:100046000BFF750C02750D0F8024E515640345142E
:10005600700B750BFF750C02750D208011E515648C
:100066000545147012750BFF750C02750D317BFF7B
:100076007A02790212032F3000B3D2B7AF151202FB
:10008600B4E51564014514700B750BFF750C02750C
:100096000D0F8011E515640345147015750BFF757A
:1000A6000C02750D207BFF7A02794212032F0200A3
:1000B60033E515640545146003020033750BFF75BF
:1000C6000C02750D317BFF7A02794212032F020072
:0100D60033F6
:0300230002016374
:09016300C0E0C0D075D000C00757
:10016C00309838C298AF99EF24CF601114601214F4
:10017C00601714601C2404701EC200801AD2008008
:10018C0016751400751505800E7514007515038011
:10019C0006751400751501D2998F99309902C29980
:0701AC00D007D0D0D0E032F3
:1002FA00E4FDEDC39FE49E5012E4FCECD3949474A5
:0B030A0080948050030C80F30D80E70E
:0103150022C5
:0603800000000000002255
:10034600C201C2A5D2A6D2A7120380E580339201CC
:04035600C2A7A20197
:01035A002280
:100003008F1312034640FBC2A5C2A6C2A7120380E8
:0E001300851380120380D2A7120380C2A72299
:1002DC008F1312034640FBD2A5C2A6C2A7120380FD
:0E02EC00851380120380D2A7120380C2A722BE
:10024F007F381200037F057E001202FA7F381200FA
:10025F00037F057E001202FA7F381200037F057EAE
:10026F00001202FA7F381200037F081200037F0C7E
:0D027F001200037F041200037F0102000340
:0601B3008B0E8A0F89107B
:1001B900E4F512EFFB7A0064017003751180EB64BA
:1001C900024A70037511C0E5112D14F511AF11051F
:1001D90011120003AB0EAA0FA910120316FF601823
:1001E900E5126410601205121202DC74012510F583
:0801F90010E4350FF50F80D56D
:0102010022DA
:10032F00E4F5A07D017F011201B3AB0BAA0CA90D5F
:07033F007D017F020201B302
:10036E0008181030206040480048406020301018B7
:02037E00080075
:02028C008F08D9
:10028E00E4F509C3E5099408748094805013E509D8
:10029E0090036E93F590AF087E001202FA05098066
:0502AE00E2AF087E0034
:0102B3002228
:0202B4008F08B1
:1002B600E4F509C3E5099408748094805013E509B0
:1002C60090037793F590AF087E001202FA05098035
:0502D600E2AF087E000C
:0102DB002200
:10035B00759850438920758DFD758BFDD28ED2AF6C
:03036B00D2AC22EF
:030000000200D724
:0C00D700787FE4F6D8FD75812002011E40
:10031600BB010689828A83E0225002E722BBFE02E5
:09032600E32289828A83E4932218
:1000E300020026E493A3F8E493A34003F68001F20D
:1000F30008DFF48029E493A3F85407240CC8C3331E
:10010300C4540F4420C8834004F456800146F6DFEC
:10011300E4800B0102040810204080900386E47EF3
:10012300019360BCA3FF543F30E509541FFEE493E1
:10013300A360010ECF54C025E060A840B8E493A3A8
:10014300FAE493A3F8E493A3C8C582C8CAC583CAD3
:10015300F0A3C8C582C8CAC583CADFE9DEE780BE8B
:01038A000072
:00000001FF
