:1001E6004D6F204469723A20476F746F004D6F203F
:1001F6005370643A2046617374205E5F5E004D6FF3
:10020600205370643A204E6F726C205E5F5E004D24
:100216006F205370643A20536C6F77205E5F5E00E8
:0D0226004D6F204469723A204261636B0005
:04037C000214000166
:100352001202337F647E001202DE12033F12002675
:0203620080FB1E
:10002600200047C2B7AF15120270E51564014514EA
:10003600700B750BFF750C01750DF38024E51564C7
:10004600034514700B750BFF750C02750D048011BA
:10005600E515640545147012750BFF750C02750DD8
:10006600157BFF7A0179E6120313300047D2B7AF4A
:1000760015120298E51564014514700B750BFF7592
:100086000C01750DF38024E51564034514700B759A
:100096000BFF750C02750D048011E51564054514FA
:1000A6007012750BFF750C02750D157BFF7A0279C0
:0500B6002612031322D5
:0300230002014790
:09014700C0E0C0D075D000C00773
:10015000309838C298AF99EF24CF60111460121410
:10016000601714601C2404701EC200801AD2008024
:1001700016751400751505800E751400751503802D
:1001800006751400751501D2998F99309902C2999C
:07019000D007D0D0D0E0320F
:1002DE00E4FDEDC39FE49E5012E4FCECD3949474C1
:0B02EE0080948050030C80F30D80E72B
:0102F90022E2
:060376000000000000225F
:10032A00C201C2A5D2A6D2A7120376E580339201F2
:04033A00C2A7A201B3
:01033E00229C
:100003008F1312032A40FBC2A5C2A6C2A71203760E
:0E001300851380120376D2A7120376C2A722AD
:1002C0008F1312032A40FBD2A5C2A6C2A71203763F
:0E02D000851380120376D2A7120376C2A722EE
:100233007F381200037F057E001202DE7F38120032
:10024300037F057E001202DE7F381200037F057EE6
:10025300001202DE7F381200037F081200037F0CB6
:0D0263001200037F041200037F010200035C
:060197008B0E8A0F891097
:10019D00E4F512EFFB7A0064017003751180EB64D6
:1001AD00024A70037511C0E5112D14F511AF11053B
:1001BD0011120003AB0EAA0FA9101202FAFF60185C
:1001CD00E5126410601205121202C074012510F5BB
:0801DD0010E4350FF50F80D589
:0101E50022F7
:10031300E4F5A07D017F01120197AB0BAA0CA90D97
:070323007D017F020201973A
:1003640008181030206040480048406020301018C1
:0203740008007F
:020270008F08F5
:10027200E4F509C3E5099408748094805013E509F4
:1002820090036493F590AF087E001202DE050980A8
:05029200E2AF087E0050
:010297002244
:020298008F08CD
:10029A00E4F509C3E5099408748094805013E509CC
:1002AA0090036D93F590AF087E001202DE05098077
:0502BA00E2AF087E0028
:0102BF00221C
:10033F00759850438920758DFD758BFDD28ED2AF88
:03034F00D2AC220B
:030000000200BB40
:0C00BB00787FE4F6D8FD75812002010278
:1002FA00BB010689828A83E0225002E722BBFE0202
:09030A00E32289828A83E4932234
:1000C700020352E493A3F8E493A34003F68001F2FA
:1000D70008DFF48029E493A3F85407240CC8C3333A
:1000E700C4540F4420C8834004F456800146F6DF09
:1000F700E4800B010204081020408090037CE47E1A
:10010700019360BCA3FF543F30E509541FFEE493FD
:10011700A360010ECF54C025E060A840B8E493A3C4
:10012700FAE493A3F8E493A3C8C582C8CAC583CAEF
:10013700F0A3C8C582C8CAC583CADFE9DEE780BEA7
:01038000007C
:00000001FF
